:040000001AEF00F003
:100008000F82F2A20AEF00F00CEF00F00EEF00F002
:100018000B2AF292F0A013EF00F015EF00F018EFA2
:1000280000F0000E0B6EF0900F9211004CEF09F0EB
:10100000003F065B4F666D7D077F6700000E066E32
:1010100004BE0FEF08F00DEF08F015EF08F0036CB9
:10102000041ED8B0042A010E066E02BE1CEF08F0A2
:101030001AEF08F022EF08F0016C021ED8B0022A65
:10104000010E061A000E086E000E076E0350041003
:10105000D8B42DEF08F02FEF08F057EF08F0010E8D
:10106000056E37EF08F0D89003360436052A04AE33
:101070003CEF08F03EEF08F033EF08F0D890073669
:1010800008360350015C04500258D8A04AEF08F01B
:101090004CEF08F051EF08F00350015E0450025A83
:1010A0000780D89004320332052E3EEF08F0065038
:1010B000D8B45DEF08F05FEF08F063EF08F0076C5D
:1010C000081ED8B0082A07C001F008C002F01200BC
:1010D000000E066E02BE71EF08F06FEF08F077EFBA
:1010E00008F0016C021ED8B0022A010E066E04BE82
:1010F0007EEF08F07CEF08F082EF08F0036C041E2E
:10110000D8B0042A03500410D8B489EF08F08BEF4C
:1011100008F0AFEF08F0010E056E93EF08F0D890DD
:1011200003360436052A04AE98EF08F09AEF08F06B
:101130008FEF08F00350015C04500258D8A0A3EFD1
:1011400008F0A5EF08F0A9EF08F00350015E045085
:10115000025AD89004320332052E9AEF08F0065056
:10116000D8B4B5EF08F0B7EF08F0BBEF08F0016CAA
:10117000021ED8B0022A01C001F002C002F0120023
:10118000030ED312D3508F0B5009D36E000E956E01
:10119000000E0F013B6F000E926E000E386F000EB6
:1011A000396FF288F086F28EF28C89900DC001F0D2
:1011B0000EC002F00C5001EC09F00BC009F00A6AF5
:1011C00027EC09F0010E0C24F66EF76A100EF722D8
:1011D0000800F5CF0CF0010E0D24F66EF76A100E24
:1011E000F7220800F5CF0DF0010E0E24F66EF76A17
:1011F000100EF7220800F5CF0EF0D5EF08F01AEF29
:1012000000F0046E898204C08CFF1A0E036EF80E83
:10121000E82EFED7032EFCD700D08992898401C026
:101220008CFF1A0E036EF80EE82EFED7032EFCD7A5
:1012300000D08994898602C08CFF1A0E036EF80EC6
:10124000E82EFED7032EFCD700D08996120009C0E5
:1012500001F00AC002F0000E046E0A0E036E68EC84
:1012600008F001500E6E09C001F00AC002F0000E35
:10127000046E0A0E036E06EC08F001500D6E09C0F4
:1012800001F00AC002F0000E046E640E036E06EC5C
:1012900008F001500C6E12000E6A0D6A0C6A0B6A9F
:1012A0000F900F92000EF86E100EF76E0001C0EF57
:0212B00008F044
:020000040020DA
:08000000FFFFFFFFFFFFFFFF00
:020000040030CA
:0E000000FF291F3FFFBF85FF0FC00FE00F401D
:00000001FF
